{
  "_format": "hh-sol-artifact-1",
  "contractName": "A",
  "sourceName": "contracts/A.sol",
  "abi": [
    {
      "inputs": [],
      "name": "getA",
      "outputs": [
        {
          "internalType": "uint256",
          "name": "",
          "type": "uint256"
        }
      ],
      "stateMutability": "view",
      "type": "function"
    },
    {
      "inputs": [
        {
          "internalType": "uint256",
          "name": "_a",
          "type": "uint256"
        }
      ],
      "name": "setA",
      "outputs": [],
      "stateMutability": "nonpayable",
      "type": "function"
    }
  ],
  "bytecode": "0x608060405234801561001057600080fd5b5061019b806100206000396000f3fe608060405234801561001057600080fd5b50600436106100365760003560e01c8063d46300fd1461003b578063ee919d5014610059575b600080fd5b610043610075565b60405161005091906100ec565b60405180910390f35b610073600480360381019061006e9190610138565b61008d565b005b6000806100806100a6565b9050806000015491505090565b60006100976100a6565b90508181600001819055505050565b6000807f440dca28649efc4519591bf483a68cede8366c858829732ff5e0164afa2451a590508091505090565b6000819050919050565b6100e6816100d3565b82525050565b600060208201905061010160008301846100dd565b92915050565b600080fd5b610115816100d3565b811461012057600080fd5b50565b6000813590506101328161010c565b92915050565b60006020828403121561014e5761014d610107565b5b600061015c84828501610123565b9150509291505056fea26469706673582212201bd3cbd643c3e8203d7a5161b88bfc28bbbab38ea2dcd9daa66c8ed9b579268964736f6c634300080a0033",
  "linkReferences": {},
  "deployedLinkReferences": {}
}