{
  "_format": "hh-sol-artifact-1",
  "contractName": "B",
  "sourceName": "contracts/A.sol",
  "abi": [
    {
      "inputs": [
        {
          "internalType": "address",
          "name": "_B",
          "type": "address"
        }
      ],
      "stateMutability": "nonpayable",
      "type": "constructor"
    },
    {
      "inputs": [],
      "name": "getB",
      "outputs": [
        {
          "internalType": "uint256",
          "name": "",
          "type": "uint256"
        }
      ],
      "stateMutability": "view",
      "type": "function"
    },
    {
      "inputs": [
        {
          "internalType": "uint256",
          "name": "_b",
          "type": "uint256"
        }
      ],
      "name": "setB",
      "outputs": [],
      "stateMutability": "nonpayable",
      "type": "function"
    }
  ],
  "bytecode": "0x608060405234801561001057600080fd5b5060405161049a38038061049a833981810160405281019061003291906100dc565b80600160006101000a81548173ffffffffffffffffffffffffffffffffffffffff021916908373ffffffffffffffffffffffffffffffffffffffff16021790555050610109565b600080fd5b600073ffffffffffffffffffffffffffffffffffffffff82169050919050565b60006100a98261007e565b9050919050565b6100b98161009e565b81146100c457600080fd5b50565b6000815190506100d6816100b0565b92915050565b6000602082840312156100f2576100f1610079565b5b6000610100848285016100c7565b91505092915050565b610382806101186000396000f3fe608060405234801561001057600080fd5b50600436106100365760003560e01c806309cdcf9b1461003b578063a1c5191514610057575b600080fd5b610055600480360381019061005091906101df565b610075565b005b61005f61019b565b60405161006c919061021b565b60405180910390f35b600160009054906101000a900473ffffffffffffffffffffffffffffffffffffffff1673ffffffffffffffffffffffffffffffffffffffff166001826100bb9190610265565b6040516024016100cb919061021b565b6040516020818303038152906040527fee919d50000000000000000000000000000000000000000000000000000000007bffffffffffffffffffffffffffffffffffffffffffffffffffffffff19166020820180517bffffffffffffffffffffffffffffffffffffffffffffffffffffffff83818316178352505050506040516101559190610335565b600060405180830381855af49150503d8060008114610190576040519150601f19603f3d011682016040523d82523d6000602084013e610195565b606091505b50505050565b60008054905090565b600080fd5b6000819050919050565b6101bc816101a9565b81146101c757600080fd5b50565b6000813590506101d9816101b3565b92915050565b6000602082840312156101f5576101f46101a4565b5b6000610203848285016101ca565b91505092915050565b610215816101a9565b82525050565b6000602082019050610230600083018461020c565b92915050565b7f4e487b7100000000000000000000000000000000000000000000000000000000600052601160045260246000fd5b6000610270826101a9565b915061027b836101a9565b9250827fffffffffffffffffffffffffffffffffffffffffffffffffffffffffffffffff038211156102b0576102af610236565b5b828201905092915050565b600081519050919050565b600081905092915050565b60005b838110156102ef5780820151818401526020810190506102d4565b838111156102fe576000848401525b50505050565b600061030f826102bb565b61031981856102c6565b93506103298185602086016102d1565b80840191505092915050565b60006103418284610304565b91508190509291505056fea2646970667358221220f0aec565deb930fef83e78f60c7ededb21afcf0150d8fad3c2e20c317742226264736f6c634300080a0033",
  "linkReferences": {},
  "deployedLinkReferences": {}
}