{
  "_format": "hh-sol-artifact-1",
  "contractName": "Hero",
  "sourceName": "contracts/Hero.sol",
  "abi": [
    {
      "inputs": [
        {
          "internalType": "enum Hero.Class",
          "name": "class",
          "type": "uint8"
        }
      ],
      "name": "createHero",
      "outputs": [],
      "stateMutability": "payable",
      "type": "function"
    },
    {
      "inputs": [],
      "name": "generateRandom",
      "outputs": [
        {
          "internalType": "uint256",
          "name": "",
          "type": "uint256"
        }
      ],
      "stateMutability": "view",
      "type": "function"
    },
    {
      "inputs": [
        {
          "internalType": "uint256",
          "name": "hero",
          "type": "uint256"
        }
      ],
      "name": "getDexterity",
      "outputs": [
        {
          "internalType": "uint256",
          "name": "",
          "type": "uint256"
        }
      ],
      "stateMutability": "pure",
      "type": "function"
    },
    {
      "inputs": [
        {
          "internalType": "uint256",
          "name": "hero",
          "type": "uint256"
        }
      ],
      "name": "getHealth",
      "outputs": [
        {
          "internalType": "uint256",
          "name": "",
          "type": "uint256"
        }
      ],
      "stateMutability": "pure",
      "type": "function"
    },
    {
      "inputs": [],
      "name": "getHeroes",
      "outputs": [
        {
          "internalType": "uint256[]",
          "name": "",
          "type": "uint256[]"
        }
      ],
      "stateMutability": "view",
      "type": "function"
    },
    {
      "inputs": [
        {
          "internalType": "uint256",
          "name": "hero",
          "type": "uint256"
        }
      ],
      "name": "getIntellect",
      "outputs": [
        {
          "internalType": "uint256",
          "name": "",
          "type": "uint256"
        }
      ],
      "stateMutability": "pure",
      "type": "function"
    },
    {
      "inputs": [
        {
          "internalType": "uint256",
          "name": "hero",
          "type": "uint256"
        }
      ],
      "name": "getMagic",
      "outputs": [
        {
          "internalType": "uint256",
          "name": "",
          "type": "uint256"
        }
      ],
      "stateMutability": "pure",
      "type": "function"
    },
    {
      "inputs": [
        {
          "internalType": "uint256",
          "name": "hero",
          "type": "uint256"
        }
      ],
      "name": "getStrength",
      "outputs": [
        {
          "internalType": "uint256",
          "name": "",
          "type": "uint256"
        }
      ],
      "stateMutability": "pure",
      "type": "function"
    }
  ],
  "bytecode": "0x608060405234801561001057600080fd5b50610a42806100206000396000f3fe60806040526004361061007b5760003560e01c80635e7e236d1161004e5780635e7e236d146101625780639a8d28821461017e578063e15f2255146101a9578063e53fbda6146101e65761007b565b806302e4af01146100805780633acfcaa7146100ab5780633fc70f2c146100e85780635bc0a62314610125575b600080fd5b34801561008c57600080fd5b50610095610223565b6040516100a291906105fb565b60405180910390f35b3480156100b757600080fd5b506100d260048036038101906100cd9190610647565b610256565b6040516100df91906105fb565b60405180910390f35b3480156100f457600080fd5b5061010f600480360381019061010a9190610647565b61026d565b60405161011c91906105fb565b60405180910390f35b34801561013157600080fd5b5061014c60048036038101906101479190610647565b610284565b60405161015991906105fb565b60405180910390f35b61017c60048036038101906101779190610699565b61029b565b005b34801561018a57600080fd5b50610193610520565b6040516101a09190610784565b60405180910390f35b3480156101b557600080fd5b506101d060048036038101906101cb9190610647565b6105b4565b6040516101dd91906105fb565b60405180910390f35b3480156101f257600080fd5b5061020d60048036038101906102089190610647565b6105cb565b60405161021a91906105fb565b60405180910390f35b600044426040516020016102389291906107c7565b6040516020818303038152906040528051906020012060001c905090565b6000601f601183901c1663ffffffff169050919050565b6000601f600783901c1663ffffffff169050919050565b6000601f601683901c1663ffffffff169050919050565b66b1a2bc2ec500003410156102e5576040517f08c379a00000000000000000000000000000000000000000000000000000000081526004016102dc90610850565b60405180910390fd5b6000600567ffffffffffffffff81111561030257610301610870565b5b6040519080825280602002602001820160405280156103305781602001602082028036833780820191505090505b5090506002816000815181106103495761034861089f565b5b60200260200101818152505060078160018151811061036b5761036a61089f565b5b602002602001018181525050600c8160028151811061038d5761038c61089f565b5b6020026020010181815250506011816003815181106103af576103ae61089f565b5b6020026020010181815250506016816004815181106103d1576103d061089f565b5b60200260200101818152505060006005905060008360038111156103f8576103f76108ce565b5b90505b600082610406610223565b610410919061092c565b90506000600184600d610423919061098c565b61042b610223565b610435919061092c565b61043f919061098c565b90508482815181106104545761045361089f565b5b602002602001015181901b83179250838061046e906109e2565b9450508484815181106104845761048361089f565b5b602002602001015185838151811061049f5761049e61089f565b5b6020026020010181815250505050600082116103fb576000803373ffffffffffffffffffffffffffffffffffffffff1673ffffffffffffffffffffffffffffffffffffffff16815260200190815260200160002081908060018154018082558091505060019003906000526020600020016000909190919091505550505050565b60606000803373ffffffffffffffffffffffffffffffffffffffff1673ffffffffffffffffffffffffffffffffffffffff1681526020019081526020016000208054806020026020016040519081016040528092919081815260200182805480156105aa57602002820191906000526020600020905b815481526020019060010190808311610596575b5050505050905090565b6000601f600c83901c1663ffffffff169050919050565b6000601f600283901c1663ffffffff169050919050565b6000819050919050565b6105f5816105e2565b82525050565b600060208201905061061060008301846105ec565b92915050565b600080fd5b610624816105e2565b811461062f57600080fd5b50565b6000813590506106418161061b565b92915050565b60006020828403121561065d5761065c610616565b5b600061066b84828501610632565b91505092915050565b6004811061068157600080fd5b50565b60008135905061069381610674565b92915050565b6000602082840312156106af576106ae610616565b5b60006106bd84828501610684565b91505092915050565b600081519050919050565b600082825260208201905092915050565b6000819050602082019050919050565b6106fb816105e2565b82525050565b600061070d83836106f2565b60208301905092915050565b6000602082019050919050565b6000610731826106c6565b61073b81856106d1565b9350610746836106e2565b8060005b8381101561077757815161075e8882610701565b975061076983610719565b92505060018101905061074a565b5085935050505092915050565b6000602082019050818103600083015261079e8184610726565b905092915050565b6000819050919050565b6107c16107bc826105e2565b6107a6565b82525050565b60006107d382856107b0565b6020820191506107e382846107b0565b6020820191508190509392505050565b600082825260208201905092915050565b7f506c656173652073656e64206d6f7265206d6f6e657900000000000000000000600082015250565b600061083a6016836107f3565b915061084582610804565b602082019050919050565b600060208201905081810360008301526108698161082d565b9050919050565b7f4e487b7100000000000000000000000000000000000000000000000000000000600052604160045260246000fd5b7f4e487b7100000000000000000000000000000000000000000000000000000000600052603260045260246000fd5b7f4e487b7100000000000000000000000000000000000000000000000000000000600052602160045260246000fd5b7f4e487b7100000000000000000000000000000000000000000000000000000000600052601260045260246000fd5b6000610937826105e2565b9150610942836105e2565b925082610952576109516108fd565b5b828206905092915050565b7f4e487b7100000000000000000000000000000000000000000000000000000000600052601160045260246000fd5b6000610997826105e2565b91506109a2836105e2565b9250827fffffffffffffffffffffffffffffffffffffffffffffffffffffffffffffffff038211156109d7576109d661095d565b5b828201905092915050565b60006109ed826105e2565b91506000821415610a0157610a0061095d565b5b60018203905091905056fea26469706673582212208dafc23356a74946d086a5b458ca80436a126835ff5fe0a6913cf8de95581c4f64736f6c634300080a0033",
  "linkReferences": {},
  "deployedLinkReferences": {}
}