{
  "_format": "hh-sol-artifact-1",
  "contractName": "TestHero",
  "sourceName": "contracts/TestHero.sol",
  "abi": [
    {
      "inputs": [
        {
          "internalType": "enum Hero.Class",
          "name": "class",
          "type": "uint8"
        }
      ],
      "name": "createHero",
      "outputs": [],
      "stateMutability": "payable",
      "type": "function"
    },
    {
      "inputs": [],
      "name": "generateRandom",
      "outputs": [
        {
          "internalType": "uint256",
          "name": "",
          "type": "uint256"
        }
      ],
      "stateMutability": "view",
      "type": "function"
    },
    {
      "inputs": [
        {
          "internalType": "uint256",
          "name": "hero",
          "type": "uint256"
        }
      ],
      "name": "getDexterity",
      "outputs": [
        {
          "internalType": "uint256",
          "name": "",
          "type": "uint256"
        }
      ],
      "stateMutability": "pure",
      "type": "function"
    },
    {
      "inputs": [
        {
          "internalType": "uint256",
          "name": "hero",
          "type": "uint256"
        }
      ],
      "name": "getHealth",
      "outputs": [
        {
          "internalType": "uint256",
          "name": "",
          "type": "uint256"
        }
      ],
      "stateMutability": "pure",
      "type": "function"
    },
    {
      "inputs": [],
      "name": "getHeroes",
      "outputs": [
        {
          "internalType": "uint256[]",
          "name": "",
          "type": "uint256[]"
        }
      ],
      "stateMutability": "view",
      "type": "function"
    },
    {
      "inputs": [
        {
          "internalType": "uint256",
          "name": "hero",
          "type": "uint256"
        }
      ],
      "name": "getIntellect",
      "outputs": [
        {
          "internalType": "uint256",
          "name": "",
          "type": "uint256"
        }
      ],
      "stateMutability": "pure",
      "type": "function"
    },
    {
      "inputs": [
        {
          "internalType": "uint256",
          "name": "hero",
          "type": "uint256"
        }
      ],
      "name": "getMagic",
      "outputs": [
        {
          "internalType": "uint256",
          "name": "",
          "type": "uint256"
        }
      ],
      "stateMutability": "pure",
      "type": "function"
    },
    {
      "inputs": [
        {
          "internalType": "uint256",
          "name": "hero",
          "type": "uint256"
        }
      ],
      "name": "getStrength",
      "outputs": [
        {
          "internalType": "uint256",
          "name": "",
          "type": "uint256"
        }
      ],
      "stateMutability": "pure",
      "type": "function"
    },
    {
      "inputs": [
        {
          "internalType": "uint256",
          "name": "r",
          "type": "uint256"
        }
      ],
      "name": "setRandom",
      "outputs": [],
      "stateMutability": "nonpayable",
      "type": "function"
    }
  ],
  "bytecode": "0x608060405234801561001057600080fd5b50610a0a806100206000396000f3fe6080604052600436106100865760003560e01c80635e7e236d116100595780635e7e236d1461016d578063729e7cf6146101895780639a8d2882146101b2578063e15f2255146101dd578063e53fbda61461021a57610086565b806302e4af011461008b5780633acfcaa7146100b65780633fc70f2c146100f35780635bc0a62314610130575b600080fd5b34801561009757600080fd5b506100a0610257565b6040516100ad9190610610565b60405180910390f35b3480156100c257600080fd5b506100dd60048036038101906100d8919061065c565b610261565b6040516100ea9190610610565b60405180910390f35b3480156100ff57600080fd5b5061011a6004803603810190610115919061065c565b610278565b6040516101279190610610565b60405180910390f35b34801561013c57600080fd5b506101576004803603810190610152919061065c565b61028f565b6040516101649190610610565b60405180910390f35b610187600480360381019061018291906106ae565b6102a6565b005b34801561019557600080fd5b506101b060048036038101906101ab919061065c565b61052b565b005b3480156101be57600080fd5b506101c7610535565b6040516101d49190610799565b60405180910390f35b3480156101e957600080fd5b5061020460048036038101906101ff919061065c565b6105c9565b6040516102119190610610565b60405180910390f35b34801561022657600080fd5b50610241600480360381019061023c919061065c565b6105e0565b60405161024e9190610610565b60405180910390f35b6000600154905090565b6000601f601183901c1663ffffffff169050919050565b6000601f600783901c1663ffffffff169050919050565b6000601f601683901c1663ffffffff169050919050565b66b1a2bc2ec500003410156102f0576040517f08c379a00000000000000000000000000000000000000000000000000000000081526004016102e790610818565b60405180910390fd5b6000600567ffffffffffffffff81111561030d5761030c610838565b5b60405190808252806020026020018201604052801561033b5781602001602082028036833780820191505090505b50905060028160008151811061035457610353610867565b5b60200260200101818152505060078160018151811061037657610375610867565b5b602002602001018181525050600c8160028151811061039857610397610867565b5b6020026020010181815250506011816003815181106103ba576103b9610867565b5b6020026020010181815250506016816004815181106103dc576103db610867565b5b602002602001018181525050600060059050600083600381111561040357610402610896565b5b90505b600082610411610257565b61041b91906108f4565b90506000600184600d61042e9190610954565b610436610257565b61044091906108f4565b61044a9190610954565b905084828151811061045f5761045e610867565b5b602002602001015181901b831792508380610479906109aa565b94505084848151811061048f5761048e610867565b5b60200260200101518583815181106104aa576104a9610867565b5b602002602001018181525050505060008211610406576000803373ffffffffffffffffffffffffffffffffffffffff1673ffffffffffffffffffffffffffffffffffffffff16815260200190815260200160002081908060018154018082558091505060019003906000526020600020016000909190919091505550505050565b8060018190555050565b60606000803373ffffffffffffffffffffffffffffffffffffffff1673ffffffffffffffffffffffffffffffffffffffff1681526020019081526020016000208054806020026020016040519081016040528092919081815260200182805480156105bf57602002820191906000526020600020905b8154815260200190600101908083116105ab575b5050505050905090565b6000601f600c83901c1663ffffffff169050919050565b6000601f600283901c1663ffffffff169050919050565b6000819050919050565b61060a816105f7565b82525050565b60006020820190506106256000830184610601565b92915050565b600080fd5b610639816105f7565b811461064457600080fd5b50565b60008135905061065681610630565b92915050565b6000602082840312156106725761067161062b565b5b600061068084828501610647565b91505092915050565b6004811061069657600080fd5b50565b6000813590506106a881610689565b92915050565b6000602082840312156106c4576106c361062b565b5b60006106d284828501610699565b91505092915050565b600081519050919050565b600082825260208201905092915050565b6000819050602082019050919050565b610710816105f7565b82525050565b60006107228383610707565b60208301905092915050565b6000602082019050919050565b6000610746826106db565b61075081856106e6565b935061075b836106f7565b8060005b8381101561078c5781516107738882610716565b975061077e8361072e565b92505060018101905061075f565b5085935050505092915050565b600060208201905081810360008301526107b3818461073b565b905092915050565b600082825260208201905092915050565b7f506c656173652073656e64206d6f7265206d6f6e657900000000000000000000600082015250565b60006108026016836107bb565b915061080d826107cc565b602082019050919050565b60006020820190508181036000830152610831816107f5565b9050919050565b7f4e487b7100000000000000000000000000000000000000000000000000000000600052604160045260246000fd5b7f4e487b7100000000000000000000000000000000000000000000000000000000600052603260045260246000fd5b7f4e487b7100000000000000000000000000000000000000000000000000000000600052602160045260246000fd5b7f4e487b7100000000000000000000000000000000000000000000000000000000600052601260045260246000fd5b60006108ff826105f7565b915061090a836105f7565b92508261091a576109196108c5565b5b828206905092915050565b7f4e487b7100000000000000000000000000000000000000000000000000000000600052601160045260246000fd5b600061095f826105f7565b915061096a836105f7565b9250827fffffffffffffffffffffffffffffffffffffffffffffffffffffffffffffffff0382111561099f5761099e610925565b5b828201905092915050565b60006109b5826105f7565b915060008214156109c9576109c8610925565b5b60018203905091905056fea2646970667358221220e6f39802681f4e18d46eeb9d8cbf47af428e56b93406f11bdebe56149879815e64736f6c634300080a0033",
  "linkReferences": {},
  "deployedLinkReferences": {}
}